{
  "_format": "hh-sol-artifact-1",
  "contractName": "NFT1155",
  "sourceName": "contracts/NFT1155.sol",
  "abi": [
    {
      "inputs": [
        {
          "internalType": "string",
          "name": "contractUri",
          "type": "string"
        }
      ],
      "stateMutability": "nonpayable",
      "type": "constructor"
    },
    {
      "anonymous": false,
      "inputs": [
        {
          "indexed": true,
          "internalType": "address",
          "name": "account",
          "type": "address"
        },
        {
          "indexed": true,
          "internalType": "address",
          "name": "operator",
          "type": "address"
        },
        {
          "indexed": false,
          "internalType": "bool",
          "name": "approved",
          "type": "bool"
        }
      ],
      "name": "ApprovalForAll",
      "type": "event"
    },
    {
      "anonymous": false,
      "inputs": [
        {
          "indexed": true,
          "internalType": "bytes32",
          "name": "role",
          "type": "bytes32"
        },
        {
          "indexed": true,
          "internalType": "bytes32",
          "name": "previousAdminRole",
          "type": "bytes32"
        },
        {
          "indexed": true,
          "internalType": "bytes32",
          "name": "newAdminRole",
          "type": "bytes32"
        }
      ],
      "name": "RoleAdminChanged",
      "type": "event"
    },
    {
      "anonymous": false,
      "inputs": [
        {
          "indexed": true,
          "internalType": "bytes32",
          "name": "role",
          "type": "bytes32"
        },
        {
          "indexed": true,
          "internalType": "address",
          "name": "account",
          "type": "address"
        },
        {
          "indexed": true,
          "internalType": "address",
          "name": "sender",
          "type": "address"
        }
      ],
      "name": "RoleGranted",
      "type": "event"
    },
    {
      "anonymous": false,
      "inputs": [
        {
          "indexed": true,
          "internalType": "bytes32",
          "name": "role",
          "type": "bytes32"
        },
        {
          "indexed": true,
          "internalType": "address",
          "name": "account",
          "type": "address"
        },
        {
          "indexed": true,
          "internalType": "address",
          "name": "sender",
          "type": "address"
        }
      ],
      "name": "RoleRevoked",
      "type": "event"
    },
    {
      "anonymous": false,
      "inputs": [
        {
          "indexed": true,
          "internalType": "address",
          "name": "operator",
          "type": "address"
        },
        {
          "indexed": true,
          "internalType": "address",
          "name": "from",
          "type": "address"
        },
        {
          "indexed": true,
          "internalType": "address",
          "name": "to",
          "type": "address"
        },
        {
          "indexed": false,
          "internalType": "uint256[]",
          "name": "ids",
          "type": "uint256[]"
        },
        {
          "indexed": false,
          "internalType": "uint256[]",
          "name": "values",
          "type": "uint256[]"
        }
      ],
      "name": "TransferBatch",
      "type": "event"
    },
    {
      "anonymous": false,
      "inputs": [
        {
          "indexed": true,
          "internalType": "address",
          "name": "operator",
          "type": "address"
        },
        {
          "indexed": true,
          "internalType": "address",
          "name": "from",
          "type": "address"
        },
        {
          "indexed": true,
          "internalType": "address",
          "name": "to",
          "type": "address"
        },
        {
          "indexed": false,
          "internalType": "uint256",
          "name": "id",
          "type": "uint256"
        },
        {
          "indexed": false,
          "internalType": "uint256",
          "name": "value",
          "type": "uint256"
        }
      ],
      "name": "TransferSingle",
      "type": "event"
    },
    {
      "anonymous": false,
      "inputs": [
        {
          "indexed": false,
          "internalType": "string",
          "name": "value",
          "type": "string"
        },
        {
          "indexed": true,
          "internalType": "uint256",
          "name": "id",
          "type": "uint256"
        }
      ],
      "name": "URI",
      "type": "event"
    },
    {
      "anonymous": false,
      "inputs": [
        {
          "indexed": false,
          "internalType": "address",
          "name": "creator",
          "type": "address"
        },
        {
          "indexed": false,
          "internalType": "uint256",
          "name": "amount",
          "type": "uint256"
        },
        {
          "indexed": false,
          "internalType": "uint256",
          "name": "id",
          "type": "uint256"
        }
      ],
      "name": "burnNFT",
      "type": "event"
    },
    {
      "anonymous": false,
      "inputs": [
        {
          "indexed": false,
          "internalType": "address",
          "name": "creator",
          "type": "address"
        },
        {
          "indexed": false,
          "internalType": "uint256",
          "name": "amount",
          "type": "uint256"
        },
        {
          "indexed": false,
          "internalType": "uint256",
          "name": "id",
          "type": "uint256"
        }
      ],
      "name": "newNFT",
      "type": "event"
    },
    {
      "inputs": [],
      "name": "DEFAULT_ADMIN_ROLE",
      "outputs": [
        {
          "internalType": "bytes32",
          "name": "",
          "type": "bytes32"
        }
      ],
      "stateMutability": "view",
      "type": "function"
    },
    {
      "inputs": [
        {
          "internalType": "address",
          "name": "account",
          "type": "address"
        },
        {
          "internalType": "uint256",
          "name": "id",
          "type": "uint256"
        }
      ],
      "name": "balanceOf",
      "outputs": [
        {
          "internalType": "uint256",
          "name": "",
          "type": "uint256"
        }
      ],
      "stateMutability": "view",
      "type": "function"
    },
    {
      "inputs": [
        {
          "internalType": "address[]",
          "name": "accounts",
          "type": "address[]"
        },
        {
          "internalType": "uint256[]",
          "name": "ids",
          "type": "uint256[]"
        }
      ],
      "name": "balanceOfBatch",
      "outputs": [
        {
          "internalType": "uint256[]",
          "name": "",
          "type": "uint256[]"
        }
      ],
      "stateMutability": "view",
      "type": "function"
    },
    {
      "inputs": [
        {
          "internalType": "address",
          "name": "account",
          "type": "address"
        },
        {
          "internalType": "uint256",
          "name": "id",
          "type": "uint256"
        },
        {
          "internalType": "uint256",
          "name": "value",
          "type": "uint256"
        }
      ],
      "name": "burn",
      "outputs": [],
      "stateMutability": "nonpayable",
      "type": "function"
    },
    {
      "inputs": [
        {
          "internalType": "address",
          "name": "account",
          "type": "address"
        },
        {
          "internalType": "uint256[]",
          "name": "ids",
          "type": "uint256[]"
        },
        {
          "internalType": "uint256[]",
          "name": "values",
          "type": "uint256[]"
        }
      ],
      "name": "burnBatch",
      "outputs": [],
      "stateMutability": "nonpayable",
      "type": "function"
    },
    {
      "inputs": [
        {
          "internalType": "uint256",
          "name": "tokenId",
          "type": "uint256"
        },
        {
          "internalType": "uint256",
          "name": "amount",
          "type": "uint256"
        }
      ],
      "name": "burnIt",
      "outputs": [],
      "stateMutability": "nonpayable",
      "type": "function"
    },
    {
      "inputs": [],
      "name": "contractURI",
      "outputs": [
        {
          "internalType": "string",
          "name": "",
          "type": "string"
        }
      ],
      "stateMutability": "view",
      "type": "function"
    },
    {
      "inputs": [
        {
          "internalType": "bytes32",
          "name": "role",
          "type": "bytes32"
        }
      ],
      "name": "getRoleAdmin",
      "outputs": [
        {
          "internalType": "bytes32",
          "name": "",
          "type": "bytes32"
        }
      ],
      "stateMutability": "view",
      "type": "function"
    },
    {
      "inputs": [
        {
          "internalType": "bytes32",
          "name": "role",
          "type": "bytes32"
        },
        {
          "internalType": "uint256",
          "name": "index",
          "type": "uint256"
        }
      ],
      "name": "getRoleMember",
      "outputs": [
        {
          "internalType": "address",
          "name": "",
          "type": "address"
        }
      ],
      "stateMutability": "view",
      "type": "function"
    },
    {
      "inputs": [
        {
          "internalType": "bytes32",
          "name": "role",
          "type": "bytes32"
        }
      ],
      "name": "getRoleMemberCount",
      "outputs": [
        {
          "internalType": "uint256",
          "name": "",
          "type": "uint256"
        }
      ],
      "stateMutability": "view",
      "type": "function"
    },
    {
      "inputs": [
        {
          "internalType": "bytes32",
          "name": "role",
          "type": "bytes32"
        },
        {
          "internalType": "address",
          "name": "account",
          "type": "address"
        }
      ],
      "name": "grantRole",
      "outputs": [],
      "stateMutability": "nonpayable",
      "type": "function"
    },
    {
      "inputs": [
        {
          "internalType": "bytes32",
          "name": "role",
          "type": "bytes32"
        },
        {
          "internalType": "address",
          "name": "account",
          "type": "address"
        }
      ],
      "name": "hasRole",
      "outputs": [
        {
          "internalType": "bool",
          "name": "",
          "type": "bool"
        }
      ],
      "stateMutability": "view",
      "type": "function"
    },
    {
      "inputs": [
        {
          "internalType": "uint256",
          "name": "",
          "type": "uint256"
        }
      ],
      "name": "ipfsHashes",
      "outputs": [
        {
          "internalType": "string",
          "name": "",
          "type": "string"
        }
      ],
      "stateMutability": "view",
      "type": "function"
    },
    {
      "inputs": [
        {
          "internalType": "address",
          "name": "account",
          "type": "address"
        },
        {
          "internalType": "address",
          "name": "operator",
          "type": "address"
        }
      ],
      "name": "isApprovedForAll",
      "outputs": [
        {
          "internalType": "bool",
          "name": "",
          "type": "bool"
        }
      ],
      "stateMutability": "view",
      "type": "function"
    },
    {
      "inputs": [
        {
          "internalType": "uint256",
          "name": "_optionId",
          "type": "uint256"
        },
        {
          "internalType": "address",
          "name": "_toAddress",
          "type": "address"
        }
      ],
      "name": "mint",
      "outputs": [],
      "stateMutability": "nonpayable",
      "type": "function"
    },
    {
      "inputs": [
        {
          "internalType": "uint256",
          "name": "amount",
          "type": "uint256"
        },
        {
          "internalType": "string",
          "name": "ipfshash",
          "type": "string"
        }
      ],
      "name": "mintNew",
      "outputs": [
        {
          "internalType": "uint256",
          "name": "",
          "type": "uint256"
        }
      ],
      "stateMutability": "nonpayable",
      "type": "function"
    },
    {
      "inputs": [],
      "name": "owner",
      "outputs": [
        {
          "internalType": "address",
          "name": "",
          "type": "address"
        }
      ],
      "stateMutability": "nonpayable",
      "type": "function"
    },
    {
      "inputs": [
        {
          "internalType": "bytes32",
          "name": "role",
          "type": "bytes32"
        },
        {
          "internalType": "address",
          "name": "account",
          "type": "address"
        }
      ],
      "name": "renounceRole",
      "outputs": [],
      "stateMutability": "nonpayable",
      "type": "function"
    },
    {
      "inputs": [
        {
          "internalType": "bytes32",
          "name": "role",
          "type": "bytes32"
        },
        {
          "internalType": "address",
          "name": "account",
          "type": "address"
        }
      ],
      "name": "revokeRole",
      "outputs": [],
      "stateMutability": "nonpayable",
      "type": "function"
    },
    {
      "inputs": [
        {
          "internalType": "address",
          "name": "from",
          "type": "address"
        },
        {
          "internalType": "address",
          "name": "to",
          "type": "address"
        },
        {
          "internalType": "uint256[]",
          "name": "ids",
          "type": "uint256[]"
        },
        {
          "internalType": "uint256[]",
          "name": "amounts",
          "type": "uint256[]"
        },
        {
          "internalType": "bytes",
          "name": "data",
          "type": "bytes"
        }
      ],
      "name": "safeBatchTransferFrom",
      "outputs": [],
      "stateMutability": "nonpayable",
      "type": "function"
    },
    {
      "inputs": [
        {
          "internalType": "address",
          "name": "from",
          "type": "address"
        },
        {
          "internalType": "address",
          "name": "to",
          "type": "address"
        },
        {
          "internalType": "uint256",
          "name": "id",
          "type": "uint256"
        },
        {
          "internalType": "uint256",
          "name": "amount",
          "type": "uint256"
        },
        {
          "internalType": "bytes",
          "name": "data",
          "type": "bytes"
        }
      ],
      "name": "safeTransferFrom",
      "outputs": [],
      "stateMutability": "nonpayable",
      "type": "function"
    },
    {
      "inputs": [
        {
          "internalType": "address",
          "name": "operator",
          "type": "address"
        },
        {
          "internalType": "bool",
          "name": "approved",
          "type": "bool"
        }
      ],
      "name": "setApprovalForAll",
      "outputs": [],
      "stateMutability": "nonpayable",
      "type": "function"
    },
    {
      "inputs": [
        {
          "internalType": "bytes4",
          "name": "interfaceId",
          "type": "bytes4"
        }
      ],
      "name": "supportsInterface",
      "outputs": [
        {
          "internalType": "bool",
          "name": "",
          "type": "bool"
        }
      ],
      "stateMutability": "view",
      "type": "function"
    },
    {
      "inputs": [
        {
          "internalType": "uint256",
          "name": "tokenId",
          "type": "uint256"
        }
      ],
      "name": "uri",
      "outputs": [
        {
          "internalType": "string",
          "name": "",
          "type": "string"
        }
      ],
      "stateMutability": "view",
      "type": "function"
    }
  ],
  "bytecode": "0x608060405260016005553480156200001657600080fd5b5060405162002dd238038062002dd2833981810160405260208110156200003c57600080fd5b81019080805160405193929190846401000000008211156200005d57600080fd5b9083019060208201858111156200007357600080fd5b82516401000000008111828201881017156200008e57600080fd5b82525081516020918201929091019080838360005b83811015620000bd578181015183820152602001620000a3565b50505050905090810190601f168015620000eb5780820380516001836020036101000a031916815260200191505b50602081016040526000815292506200010f91506301ffc9a760e01b905062000217565b6200011a816200029c565b6200012c636cdb3d1360e11b62000217565b6200013e6303a24d0760e21b62000217565b506200014c600033620002b5565b60408051808201909152600780825266697066733a2f2f60c81b60209092019182526200017c91600691620003c1565b5080604051602001808066697066733a2f2f60c81b81525060070182805190602001908083835b60208310620001c45780518252601f199092019160209182019101620001a3565b6001836020036101000a038019825116818451168082178552505050505050905001915050604051602081830303815290604052600790805190602001906200020f929190620003c1565b50506200046d565b6001600160e01b0319808216141562000277576040805162461bcd60e51b815260206004820152601c60248201527f4552433136353a20696e76616c696420696e7465726661636520696400000000604482015290519081900360640190fd5b6001600160e01b0319166000908152602081905260409020805460ff19166001179055565b8051620002b1906003906020840190620003c1565b5050565b620002b182826000828152600460209081526040909120620002e29183906200187f62000336821b17901c565b15620002b157620002f262000356565b6001600160a01b0316816001600160a01b0316837f2f8788117e7eff1d82e926ec794901d17c78024a50270940304540a733656f0d60405160405180910390a45050565b60006200034d836001600160a01b0384166200035a565b90505b92915050565b3390565b6000620003688383620003a9565b620003a05750815460018181018455600084815260208082209093018490558454848252828601909352604090209190915562000350565b50600062000350565b60009081526001919091016020526040902054151590565b828054600181600116156101000203166002900490600052602060002090601f016020900481019282620003f9576000855562000444565b82601f106200041457805160ff191683800117855562000444565b8280016001018555821562000444579182015b828111156200044457825182559160200191906001019062000427565b506200045292915062000456565b5090565b5b8082111562000452576000815560010162000457565b612955806200047d6000396000f3fe608060405234801561001057600080fd5b50600436106101575760003560e01c806394bf804d116100c3578063d547741f1161007c578063d547741f14610877578063e8a3d485146108a3578063e985e9c5146108ab578063f242432a146108d9578063f5298aca146109a2578063fb31bd07146109d457610157565b806394bf804d146107b8578063a217fddf146107e4578063a22cb465146107ec578063a4de2f5c1461081a578063b6b75c3814610837578063ca15c8731461085a57610157565b806336568abe1161011557806336568abe146104735780634e1273f41461049f5780636b20c454146106125780638da5cb5b146107455780639010d07c1461076957806391d148541461078c57610157565b8062fdd58e1461015c57806301ffc9a71461019a5780630e89341c146101d5578063248a9ca3146102675780632eb2c2d6146102845780632f2ff15d14610447575b600080fd5b6101886004803603604081101561017257600080fd5b506001600160a01b038135169060200135610a7f565b60408051918252519081900360200190f35b6101c1600480360360208110156101b057600080fd5b50356001600160e01b031916610af1565b604080519115158252519081900360200190f35b6101f2600480360360208110156101eb57600080fd5b5035610b10565b6040805160208082528351818301528351919283929083019185019080838360005b8381101561022c578181015183820152602001610214565b50505050905090810190601f1680156102595780820380516001836020036101000a031916815260200191505b509250505060405180910390f35b6101886004803603602081101561027d57600080fd5b5035610bf9565b610445600480360360a081101561029a57600080fd5b6001600160a01b038235811692602081013590911691810190606081016040820135600160201b8111156102cd57600080fd5b8201836020820111156102df57600080fd5b803590602001918460208302840111600160201b8311171561030057600080fd5b9190808060200260200160405190810160405280939291908181526020018383602002808284376000920191909152509295949360208101935035915050600160201b81111561034f57600080fd5b82018360208201111561036157600080fd5b803590602001918460208302840111600160201b8311171561038257600080fd5b9190808060200260200160405190810160405280939291908181526020018383602002808284376000920191909152509295949360208101935035915050600160201b8111156103d157600080fd5b8201836020820111156103e357600080fd5b803590602001918460018302840111600160201b8311171561040457600080fd5b91908080601f016020809104026020016040519081016040528093929190818152602001838380828437600092019190915250929550610c0e945050505050565b005b6104456004803603604081101561045d57600080fd5b50803590602001356001600160a01b0316610f0c565b6104456004803603604081101561048957600080fd5b50803590602001356001600160a01b0316610f78565b6105c2600480360360408110156104b557600080fd5b810190602081018135600160201b8111156104cf57600080fd5b8201836020820111156104e157600080fd5b803590602001918460208302840111600160201b8311171561050257600080fd5b9190808060200260200160405190810160405280939291908181526020018383602002808284376000920191909152509295949360208101935035915050600160201b81111561055157600080fd5b82018360208201111561056357600080fd5b803590602001918460208302840111600160201b8311171561058457600080fd5b919080806020026020016040519081016040528093929190818152602001838360200280828437600092019190915250929550610fd9945050505050565b60408051602080825283518183015283519192839290830191858101910280838360005b838110156105fe5781810151838201526020016105e6565b505050509050019250505060405180910390f35b6104456004803603606081101561062857600080fd5b6001600160a01b038235169190810190604081016020820135600160201b81111561065257600080fd5b82018360208201111561066457600080fd5b803590602001918460208302840111600160201b8311171561068557600080fd5b9190808060200260200160405190810160405280939291908181526020018383602002808284376000920191909152509295949360208101935035915050600160201b8111156106d457600080fd5b8201836020820111156106e657600080fd5b803590602001918460208302840111600160201b8311171561070757600080fd5b9190808060200260200160405190810160405280939291908181526020018383602002808284376000920191909152509295506110c5945050505050565b61074d61113e565b604080516001600160a01b039092168252519081900360200190f35b61074d6004803603604081101561077f57600080fd5b5080359060200135611150565b6101c1600480360360408110156107a257600080fd5b50803590602001356001600160a01b031661116f565b610445600480360360408110156107ce57600080fd5b50803590602001356001600160a01b0316611187565b6101886111f0565b6104456004803603604081101561080257600080fd5b506001600160a01b03813516906020013515156111f5565b6101f26004803603602081101561083057600080fd5b50356112e4565b6104456004803603604081101561084d57600080fd5b508035906020013561137f565b6101886004803603602081101561087057600080fd5b5035611422565b6104456004803603604081101561088d57600080fd5b50803590602001356001600160a01b0316611439565b6101f2611492565b6101c1600480360360408110156108c157600080fd5b506001600160a01b0381358116916020013516611528565b610445600480360360a08110156108ef57600080fd5b6001600160a01b03823581169260208101359091169160408201359160608101359181019060a081016080820135600160201b81111561092e57600080fd5b82018360208201111561094057600080fd5b803590602001918460018302840111600160201b8311171561096157600080fd5b91908080601f016020809104026020016040519081016040528093929190818152602001838380828437600092019190915250929550611556945050505050565b610445600480360360608110156109b857600080fd5b506001600160a01b038135169060208101359060400135611721565b610188600480360360408110156109ea57600080fd5b81359190810190604081016020820135600160201b811115610a0b57600080fd5b820183602082011115610a1d57600080fd5b803590602001918460018302840111600160201b83111715610a3e57600080fd5b91908080601f016020809104026020016040519081016040528093929190818152602001838380828437600092019190915250929550611795945050505050565b60006001600160a01b038316610ac65760405162461bcd60e51b815260040180806020018281038252602b81526020018061270a602b913960400191505060405180910390fd5b5060008181526001602090815260408083206001600160a01b03861684529091529020545b92915050565b6001600160e01b03191660009081526020819052604090205460ff1690565b60606006600860008481526020019081526020016000206040516020018083805460018160011615610100020316600290048015610b855780601f10610b63576101008083540402835291820191610b85565b820191906000526020600020905b815481529060010190602001808311610b71575b505082805460018160011615610100020316600290048015610bde5780601f10610bbc576101008083540402835291820191610bde565b820191906000526020600020905b815481529060010190602001808311610bca575b505060408051601f1981840301815291905295945050505050565b60009081526004602052604090206002015490565b8151835114610c4e5760405162461bcd60e51b81526004018080602001828103825260288152602001806128a86028913960400191505060405180910390fd5b6001600160a01b038416610c935760405162461bcd60e51b81526004018080602001828103825260258152602001806127b26025913960400191505060405180910390fd5b610c9b611894565b6001600160a01b0316856001600160a01b03161480610cc65750610cc685610cc1611894565b611528565b610d015760405162461bcd60e51b81526004018080602001828103825260328152602001806127d76032913960400191505060405180910390fd5b6000610d0b611894565b9050610d1b818787878787610f04565b60005b8451811015610e1c576000858281518110610d3557fe5b602002602001015190506000858381518110610d4d57fe5b60200260200101519050610dba816040518060600160405280602a815260200161282c602a91396001600086815260200190815260200160002060008d6001600160a01b03166001600160a01b03168152602001908152602001600020546118989092919063ffffffff16565b60008381526001602090815260408083206001600160a01b038e811685529252808320939093558a1681522054610df1908261192f565b60009283526001602081815260408086206001600160a01b038d168752909152909320555001610d1e565b50846001600160a01b0316866001600160a01b0316826001600160a01b03167f4a39dc06d4c0dbc64b70af90fd698a233a518aa5d07e595d983b8c0526c8f7fb8787604051808060200180602001838103835285818151815260200191508051906020019060200280838360005b83811015610ea2578181015183820152602001610e8a565b50505050905001838103825284818151815260200191508051906020019060200280838360005b83811015610ee1578181015183820152602001610ec9565b5050505090500194505050505060405180910390a4610f04818787878787611989565b505050505050565b600082815260046020526040902060020154610f2f90610f2a611894565b61116f565b610f6a5760405162461bcd60e51b815260040180806020018281038252602f8152602001806126db602f913960400191505060405180910390fd5b610f748282611c08565b5050565b610f80611894565b6001600160a01b0316816001600160a01b031614610fcf5760405162461bcd60e51b815260040180806020018281038252602f8152602001806128f1602f913960400191505060405180910390fd5b610f748282611c71565b6060815183511461101b5760405162461bcd60e51b815260040180806020018281038252602981526020018061287f6029913960400191505060405180910390fd5b6000835167ffffffffffffffff8111801561103557600080fd5b5060405190808252806020026020018201604052801561105f578160200160208202803683370190505b50905060005b84518110156110bd5761109e85828151811061107d57fe5b602002602001015185838151811061109157fe5b6020026020010151610a7f565b8282815181106110aa57fe5b6020908102919091010152600101611065565b509392505050565b6110cd611894565b6001600160a01b0316836001600160a01b031614806110f357506110f383610cc1611894565b61112e5760405162461bcd60e51b81526004018080602001828103825260298152602001806127596029913960400191505060405180910390fd5b611139838383611cda565b505050565b600061114a8180611150565b90505b90565b60008281526004602052604081206111689083611f48565b9392505050565b60008281526004602052604081206111689083611f54565b6111a38183600160405180602001604052806000815250611f69565b604080516001600160a01b03831681526001602082015280820184905290517f738d754d9e4ed63efb97cec47b56299361b8fd39cd676286fbe4794172cbe7d79181900360600190a15050565b600081565b816001600160a01b0316611207611894565b6001600160a01b0316141561124d5760405162461bcd60e51b81526004018080602001828103825260298152602001806128566029913960400191505060405180910390fd5b806002600061125a611894565b6001600160a01b03908116825260208083019390935260409182016000908120918716808252919093529120805460ff19169215159290921790915561129e611894565b6001600160a01b03167f17307eab39ab6107e8899845ad3d59bd9653f200f220920489ca2b5937696c318360405180821515815260200191505060405180910390a35050565b60086020908152600091825260409182902080548351601f6002600019610100600186161502019093169290920491820184900484028101840190945280845290918301828280156113775780601f1061134c57610100808354040283529160200191611377565b820191906000526020600020905b81548152906001019060200180831161135a57829003601f168201915b505050505081565b61138a60003361116f565b6113d3576040805162461bcd60e51b81526020600482015260156024820152744f6e6c79206f776e65722063616e2061636365737360581b604482015290519081900360640190fd5b6113de338383611721565b604080513381526020810183905280820184905290517f1cc509fd6d94910dd0d5d3f822c08fc79ca13c4324eda49ceffd7fdcf99ddb049181900360600190a15050565b6000818152600460205260408120610aeb90612071565b60008281526004602052604090206002015461145790610f2a611894565b610fcf5760405162461bcd60e51b81526004018080602001828103825260308152602001806127826030913960400191505060405180910390fd5b60078054604080516020601f600260001961010060018816150201909516949094049384018190048102820181019092528281526060939092909183018282801561151e5780601f106114f35761010080835404028352916020019161151e565b820191906000526020600020905b81548152906001019060200180831161150157829003601f168201915b5050505050905090565b6001600160a01b03918216600090815260026020908152604080832093909416825291909152205460ff1690565b6001600160a01b03841661159b5760405162461bcd60e51b81526004018080602001828103825260258152602001806127b26025913960400191505060405180910390fd5b6115a3611894565b6001600160a01b0316856001600160a01b031614806115c957506115c985610cc1611894565b6116045760405162461bcd60e51b81526004018080602001828103825260298152602001806127596029913960400191505060405180910390fd5b600061160e611894565b905061162e81878761161f8861207c565b6116288861207c565b87610f04565b611675836040518060600160405280602a815260200161282c602a913960008781526001602090815260408083206001600160a01b038d1684529091529020549190611898565b60008581526001602090815260408083206001600160a01b038b811685529252808320939093558716815220546116ac908461192f565b60008581526001602090815260408083206001600160a01b03808b168086529184529382902094909455805188815291820187905280518a8416938616927fc3d58168c5ae7397731d063d5bbf3d657854427343f4c083240f7aacaa2d0f6292908290030190a4610f048187878787876120c1565b611729611894565b6001600160a01b0316836001600160a01b0316148061174f575061174f83610cc1611894565b61178a5760405162461bcd60e51b81526004018080602001828103825260298152602001806127596029913960400191505060405180910390fd5b611139838383612232565b60006117a1813361116f565b6117ea576040805162461bcd60e51b81526020600482015260156024820152744f6e6c79206f776e65722063616e2061636365737360581b604482015290519081900360640190fd5b611807336005548560405180602001604052806000815250611f69565b6005546000908152600860209081526040909120835161182992850190612510565b50600554604080513381526020810186905280820192909252517f738d754d9e4ed63efb97cec47b56299361b8fd39cd676286fbe4794172cbe7d79181900360600190a150600580546001810190915592915050565b6000611168836001600160a01b038416612365565b3390565b600081848411156119275760405162461bcd60e51b81526004018080602001828103825283818151815260200191508051906020019080838360005b838110156118ec5781810151838201526020016118d4565b50505050905090810190601f1680156119195780820380516001836020036101000a031916815260200191505b509250505060405180910390fd5b505050900390565b600082820183811015611168576040805162461bcd60e51b815260206004820152601b60248201527f536166654d6174683a206164646974696f6e206f766572666c6f770000000000604482015290519081900360640190fd5b61199b846001600160a01b03166123af565b15610f0457836001600160a01b031663bc197c8187878686866040518663ffffffff1660e01b815260040180866001600160a01b03168152602001856001600160a01b03168152602001806020018060200180602001848103845287818151815260200191508051906020019060200280838360005b83811015611a29578181015183820152602001611a11565b50505050905001848103835286818151815260200191508051906020019060200280838360005b83811015611a68578181015183820152602001611a50565b50505050905001848103825285818151815260200191508051906020019080838360005b83811015611aa4578181015183820152602001611a8c565b50505050905090810190601f168015611ad15780820380516001836020036101000a031916815260200191505b5098505050505050505050602060405180830381600087803b158015611af657600080fd5b505af1925050508015611b1b57506040513d6020811015611b1657600080fd5b505160015b611bb057611b276125b7565b80611b325750611b79565b60405162461bcd60e51b81526020600482018181528351602484015283518493919283926044019190850190808383600083156118ec5781810151838201526020016118d4565b60405162461bcd60e51b815260040180806020018281038252603481526020018061265d6034913960400191505060405180910390fd5b6001600160e01b0319811663bc197c8160e01b14611bff5760405162461bcd60e51b81526004018080602001828103825260288152602001806126b36028913960400191505060405180910390fd5b50505050505050565b6000828152600460205260409020611c20908261187f565b15610f7457611c2d611894565b6001600160a01b0316816001600160a01b0316837f2f8788117e7eff1d82e926ec794901d17c78024a50270940304540a733656f0d60405160405180910390a45050565b6000828152600460205260409020611c8990826123b5565b15610f7457611c96611894565b6001600160a01b0316816001600160a01b0316837ff6391f5c32d9c69d2a47ea670b442974b53935d1edc7fd64eb21e047a839171b60405160405180910390a45050565b6001600160a01b038316611d1f5760405162461bcd60e51b81526004018080602001828103825260238152602001806128096023913960400191505060405180910390fd5b8051825114611d5f5760405162461bcd60e51b81526004018080602001828103825260288152602001806128a86028913960400191505060405180910390fd5b6000611d69611894565b9050611d8981856000868660405180602001604052806000815250610f04565b60005b8351811015611e6757611e1e838281518110611da457fe5b60200260200101516040518060600160405280602481526020016127356024913960016000888681518110611dd557fe5b602002602001015181526020019081526020016000206000896001600160a01b03166001600160a01b03168152602001908152602001600020546118989092919063ffffffff16565b60016000868481518110611e2e57fe5b602090810291909101810151825281810192909252604090810160009081206001600160a01b038a168252909252902055600101611d8c565b5060006001600160a01b0316846001600160a01b0316826001600160a01b03167f4a39dc06d4c0dbc64b70af90fd698a233a518aa5d07e595d983b8c0526c8f7fb8686604051808060200180602001838103835285818151815260200191508051906020019060200280838360005b83811015611eee578181015183820152602001611ed6565b50505050905001838103825284818151815260200191508051906020019060200280838360005b83811015611f2d578181015183820152602001611f15565b5050505090500194505050505060405180910390a450505050565b600061116883836123ca565b6000611168836001600160a01b03841661242e565b6001600160a01b038416611fae5760405162461bcd60e51b81526004018080602001828103825260218152602001806128d06021913960400191505060405180910390fd5b6000611fb8611894565b9050611fca8160008761161f8861207c565b60008481526001602090815260408083206001600160a01b0389168452909152902054611ff7908461192f565b60008581526001602090815260408083206001600160a01b03808b16808652918452828520959095558151898152928301889052815190948616927fc3d58168c5ae7397731d063d5bbf3d657854427343f4c083240f7aacaa2d0f6292908290030190a461206a816000878787876120c1565b5050505050565b6000610aeb82612446565b604080516001808252818301909252606091600091906020808301908036833701905050905082816000815181106120b057fe5b602090810291909101015292915050565b6120d3846001600160a01b03166123af565b15610f0457836001600160a01b031663f23a6e6187878686866040518663ffffffff1660e01b815260040180866001600160a01b03168152602001856001600160a01b0316815260200184815260200183815260200180602001828103825283818151815260200191508051906020019080838360005b8381101561216257818101518382015260200161214a565b50505050905090810190601f16801561218f5780820380516001836020036101000a031916815260200191505b509650505050505050602060405180830381600087803b1580156121b257600080fd5b505af19250505080156121d757506040513d60208110156121d257600080fd5b505160015b6121e357611b276125b7565b6001600160e01b0319811663f23a6e6160e01b14611bff5760405162461bcd60e51b81526004018080602001828103825260288152602001806126b36028913960400191505060405180910390fd5b6001600160a01b0383166122775760405162461bcd60e51b81526004018080602001828103825260238152602001806128096023913960400191505060405180910390fd5b6000612281611894565b90506122b1818560006122938761207c565b61229c8761207c565b60405180602001604052806000815250610f04565b6122f8826040518060600160405280602481526020016127356024913960008681526001602090815260408083206001600160a01b038b1684529091529020549190611898565b60008481526001602090815260408083206001600160a01b03808a16808652918452828520959095558151888152928301879052815193949093908616927fc3d58168c5ae7397731d063d5bbf3d657854427343f4c083240f7aacaa2d0f6292908290030190a450505050565b6000612371838361242e565b6123a757508154600181810184556000848152602080822090930184905584548482528286019093526040902091909155610aeb565b506000610aeb565b3b151590565b6000611168836001600160a01b03841661244a565b8154600090821061240c5760405162461bcd60e51b81526004018080602001828103825260228152602001806126916022913960400191505060405180910390fd5b82600001828154811061241b57fe5b9060005260206000200154905092915050565b60009081526001919091016020526040902054151590565b5490565b60008181526001830160205260408120548015612506578354600019808301919081019060009087908390811061247d57fe5b906000526020600020015490508087600001848154811061249a57fe5b6000918252602080832090910192909255828152600189810190925260409020908401905586548790806124ca57fe5b60019003818190600052602060002001600090559055866001016000878152602001908152602001600020600090556001945050505050610aeb565b6000915050610aeb565b828054600181600116156101000203166002900490600052602060002090601f016020900481019282612546576000855561258c565b82601f1061255f57805160ff191683800117855561258c565b8280016001018555821561258c579182015b8281111561258c578251825591602001919060010190612571565b5061259892915061259c565b5090565b5b80821115612598576000815560010161259d565b60e01c90565b600060443d10156125c75761114d565b600481823e6308c379a06125db82516125b1565b146125e55761114d565b6040513d600319016004823e80513d67ffffffffffffffff8160248401118184111715612615575050505061114d565b8284019250825191508082111561262f575050505061114d565b503d830160208284010111156126475750505061114d565b601f01601f191681016020016040529150509056fe455243313135353a207472616e7366657220746f206e6f6e2045524331313535526563656976657220696d706c656d656e746572456e756d657261626c655365743a20696e646578206f7574206f6620626f756e6473455243313135353a204552433131353552656365697665722072656a656374656420746f6b656e73416363657373436f6e74726f6c3a2073656e646572206d75737420626520616e2061646d696e20746f206772616e74455243313135353a2062616c616e636520717565727920666f7220746865207a65726f2061646472657373455243313135353a206275726e20616d6f756e7420657863656564732062616c616e6365455243313135353a2063616c6c6572206973206e6f74206f776e6572206e6f7220617070726f766564416363657373436f6e74726f6c3a2073656e646572206d75737420626520616e2061646d696e20746f207265766f6b65455243313135353a207472616e7366657220746f20746865207a65726f2061646472657373455243313135353a207472616e736665722063616c6c6572206973206e6f74206f776e6572206e6f7220617070726f766564455243313135353a206275726e2066726f6d20746865207a65726f2061646472657373455243313135353a20696e73756666696369656e742062616c616e636520666f72207472616e73666572455243313135353a2073657474696e6720617070726f76616c2073746174757320666f722073656c66455243313135353a206163636f756e747320616e6420696473206c656e677468206d69736d61746368455243313135353a2069647320616e6420616d6f756e7473206c656e677468206d69736d61746368455243313135353a206d696e7420746f20746865207a65726f2061646472657373416363657373436f6e74726f6c3a2063616e206f6e6c792072656e6f756e636520726f6c657320666f722073656c66a2646970667358221220d300f7fe1a15df38e32fa6939f350fa86467cca46cc68d6a1e6d29740d28380e64736f6c63430007060033",
  "linkReferences": {},
  "deployedLinkReferences": {}
}